{"contracts/Sudoku.sol":{"Sudoku":{"abi":[{"inputs":[{"internalType":"address","name":"_verifierAddr","type":"address"}],"stateMutability":"nonpayable","type":"constructor"},{"inputs":[{"internalType":"string","name":"stringTime","type":"string"}],"name":"generateSudokuBoard","outputs":[{"internalType":"uint8[4][4]","name":"","type":"uint8[4][4]"}],"stateMutability":"view","type":"function"},{"inputs":[],"name":"verifierAddr","outputs":[{"internalType":"address","name":"","type":"address"}],"stateMutability":"view","type":"function"},{"inputs":[{"internalType":"uint256[2]","name":"a","type":"uint256[2]"},{"internalType":"uint256[2][2]","name":"b","type":"uint256[2][2]"},{"internalType":"uint256[2]","name":"c","type":"uint256[2]"},{"internalType":"uint256[16]","name":"input","type":"uint256[16]"}],"name":"verifyProof","outputs":[{"internalType":"bool","name":"","type":"bool"}],"stateMutability":"view","type":"function"},{"inputs":[{"internalType":"uint256[2]","name":"a","type":"uint256[2]"},{"internalType":"uint256[2][2]","name":"b","type":"uint256[2][2]"},{"internalType":"uint256[2]","name":"c","type":"uint256[2]"},{"internalType":"uint256[16]","name":"input","type":"uint256[16]"}],"name":"verifySudoku","outputs":[{"internalType":"bool","name":"","type":"bool"}],"stateMutability":"view","type":"function"}],"evm":{"bytecode":{"linkReferences":{},"object":"6080604052604051806060016040528060405180608001604052806040518060800160405280600160ff168152602001600060ff168152602001600360ff168152602001600060ff1681525081526020016040518060800160405280600260ff168152602001600060ff168152602001600060ff168152602001600060ff1681525081526020016040518060800160405280600060ff168152602001600060ff168152602001600060ff168152602001600460ff1681525081526020016040518060800160405280600060ff168152602001600160ff168152602001600060ff168152602001600060ff16815250815250815260200160405180608001604052806040518060800160405280600060ff168152602001600060ff168152602001600060ff168152602001600360ff1681525081526020016040518060800160405280600060ff168152602001600460ff168152602001600060ff168152602001600060ff1681525081526020016040518060800160405280600060ff168152602001600060ff168152602001600360ff168152602001600260ff1681525081526020016040518060800160405280600060ff168152602001600060ff168152602001600060ff168152602001600060ff16815250815250815260200160405180608001604052806040518060800160405280600060ff168152602001600060ff168152602001600060ff168152602001600460ff1681525081526020016040518060800160405280600060ff168152602001600060ff168152602001600060ff168152602001600060ff1681525081526020016040518060800160405280600260ff168152602001600060ff168152602001600060ff168152602001600360ff1681525081526020016040518060800160405280600460ff168152602001600060ff168152602001600160ff168152602001600260ff168152508152508152506001906003620002d19291906200034c565b50348015620002df57600080fd5b506040516200191838038062001918833981810160405281019062000305919062000574565b806000806101000a81548173ffffffffffffffffffffffffffffffffffffffff021916908373ffffffffffffffffffffffffffffffffffffffff16021790555050620005ee565b826003600402810192821562000391579160200282015b8281111562000390578251829060046200037f929190620003a4565b509160200191906004019062000363565b5b509050620003a09190620003f9565b5090565b8260048101928215620003e6579160200282015b82811115620003e557825182906004620003d492919062000421565b5091602001919060010190620003b8565b5b509050620003f59190620004c2565b5090565b5b808211156200041d5760008181620004139190620004ea565b50600401620003fa565b5090565b826004601f01602090048101928215620004af5791602002820160005b838211156200047e57835183826101000a81548160ff021916908360ff16021790555092602001926001016020816000010492830192600103026200043e565b8015620004ad5782816101000a81549060ff02191690556001016020816000010492830192600103026200047e565b505b509050620004be919062000537565b5090565b5b80821115620004e65760008181620004dc919062000556565b50600101620004c3565b5090565b5060008181620004fb919062000556565b50600101600081816200050f919062000556565b506001016000818162000523919062000556565b50600101600062000535919062000556565b565b5b808211156200055257600081600090555060010162000538565b5090565b5060009055565b6000815190506200056e81620005d4565b92915050565b6000602082840312156200058757600080fd5b600062000597848285016200055d565b91505092915050565b6000620005ad82620005b4565b9050919050565b600073ffffffffffffffffffffffffffffffffffffffff82169050919050565b620005df81620005a0565b8114620005eb57600080fd5b50565b61131a80620005fe6000396000f3fe608060405234801561001057600080fd5b506004361061004c5760003560e01c8063663ea2e214610051578063aa160d961461006f578063c54d8fd31461009f578063c82febf5146100cf575b600080fd5b6100596100ff565b6040516100669190610ce5565b60405180910390f35b61008960048036038101906100849190610881565b610123565b6040516100969190610d63565b60405180910390f35b6100b960048036038101906100b4919061090f565b6101c4565b6040516100c69190610d00565b60405180910390f35b6100e960048036038101906100e49190610881565b6101dc565b6040516100f69190610d63565b60405180910390f35b60008054906101000a900473ffffffffffffffffffffffffffffffffffffffff1681565b600061012e82610298565b61016d576040517f08c379a000000000000000000000000000000000000000000000000000000000815260040161016490610d7e565b60405180910390fd5b610179858585856101dc565b6101b8576040517f08c379a00000000000000000000000000000000000000000000000000000000081526004016101af90610d9e565b60405180910390fd5b60019050949350505050565b6101cc610602565b6101d5826104dd565b9050919050565b60008060009054906101000a900473ffffffffffffffffffffffffffffffffffffffff1673ffffffffffffffffffffffffffffffffffffffff1663c82febf5868686866040518563ffffffff1660e01b815260040161023e9493929190610d1c565b60206040518083038186803b15801561025657600080fd5b505afa15801561026a573d6000803e3d6000fd5b505050506040513d601f19601f8201168201806040525081019061028e91906108e6565b9050949350505050565b60008060019050600060038110156104d5576001915060005b600182600381106102eb577f4e487b7100000000000000000000000000000000000000000000000000000000600052603260045260246000fd5b505060048110156104ca5760005b60018360038110610333577f4e487b7100000000000000000000000000000000000000000000000000000000600052603260045260246000fd5b60040201826004811061036f577f4e487b7100000000000000000000000000000000000000000000000000000000600052603260045260246000fd5b505060048110156104b857600183600381106103b4577f4e487b7100000000000000000000000000000000000000000000000000000000600052603260045260246000fd5b6004020182600481106103f0577f4e487b7100000000000000000000000000000000000000000000000000000000600052603260045260246000fd5b018160048110610429577f4e487b7100000000000000000000000000000000000000000000000000000000600052603260045260246000fd5b602091828204019190069054906101000a900460ff1660ff1686828460046104519190610fef565b61045b9190610f99565b60108110610492577f4e487b7100000000000000000000000000000000000000000000000000000000600052603260045260246000fd5b6020020151146104a557600093506104b8565b80806104b090611111565b9150506102f9565b50806104c390611111565b90506102b1565b5081925050506104d8565b50505b919050565b6104e5610602565b60006003444233866040516020016105009493929190610c9b565b6040516020818303038152906040528051906020012060001c6105239190611188565b90506001816003811061055f577f4e487b7100000000000000000000000000000000000000000000000000000000600052603260045260246000fd5b60040201600480602002604051908101604052809291906000905b828210156105f6578382016004806020026040519081016040528092919082600480156105e2576020028201916000905b82829054906101000a900460ff1660ff16815260200190600101906020826000010492830192600103820291508084116105ab5790505b50505050508152602001906001019061057a565b50505050915050919050565b60405180608001604052806004905b61061961062f565b8152602001906001900390816106115790505090565b6040518060800160405280600490602082028036833780820191505090505090565b600061066461065f84610de3565b610dbe565b9050808285604086028201111561067a57600080fd5b60005b858110156106aa57816106908882610806565b84526020840193506040830192505060018101905061067d565b5050509392505050565b60006106c76106c284610e09565b610dbe565b905080828560208602820111156106dd57600080fd5b60005b8581101561070d57816106f3888261086c565b8452602084019350602083019250506001810190506106e0565b5050509392505050565b600061072a61072584610e2f565b610dbe565b9050808285602086028201111561074057600080fd5b60005b858110156107705781610756888261086c565b845260208401935060208301925050600181019050610743565b5050509392505050565b600061078d61078884610e55565b610dbe565b9050828152602081018484840111156107a557600080fd5b6107b084828561109e565b509392505050565b600082601f8301126107c957600080fd5b60026107d6848285610651565b91505092915050565b600082601f8301126107f057600080fd5b60106107fd8482856106b4565b91505092915050565b600082601f83011261081757600080fd5b6002610824848285610717565b91505092915050565b60008151905061083c816112b6565b92915050565b600082601f83011261085357600080fd5b813561086384826020860161077a565b91505092915050565b60008135905061087b816112cd565b92915050565b600080600080610300858703121561089857600080fd5b60006108a687828801610806565b94505060406108b7878288016107b8565b93505060c06108c887828801610806565b9250506101006108da878288016107df565b91505092959194509250565b6000602082840312156108f857600080fd5b60006109068482850161082d565b91505092915050565b60006020828403121561092157600080fd5b600082013567ffffffffffffffff81111561093b57600080fd5b61094784828501610842565b91505092915050565b600061095c8383610adb565b60408301905092915050565b60006109748383610b89565b60808301905092915050565b600061098c8383610c66565b60208301905092915050565b60006109a48383610c8c565b60208301905092915050565b6109b981611049565b82525050565b6109d06109cb82611049565b61115a565b82525050565b6109df81610eb8565b6109e98184610f3b565b92506109f482610e86565b8060005b83811015610a25578151610a0c8782610950565b9650610a1783610efa565b9250506001810190506109f8565b505050505050565b610a3681610ec3565b610a408184610f46565b9250610a4b82610e90565b8060005b83811015610a7c578151610a638782610968565b9650610a6e83610f07565b925050600181019050610a4f565b505050505050565b610a8d81610ece565b610a978184610f51565b9250610aa282610e9a565b8060005b83811015610ad3578151610aba8782610980565b9650610ac583610f14565b925050600181019050610aa6565b505050505050565b610ae481610ed9565b610aee8184610f5c565b9250610af982610ea4565b8060005b83811015610b2a578151610b118782610980565b9650610b1c83610f21565b925050600181019050610afd565b505050505050565b610b3b81610ed9565b610b458184610f67565b9250610b5082610ea4565b8060005b83811015610b81578151610b688782610980565b9650610b7383610f21565b925050600181019050610b54565b505050505050565b610b9281610ee4565b610b9c8184610f72565b9250610ba782610eae565b8060005b83811015610bd8578151610bbf8782610998565b9650610bca83610f2e565b925050600181019050610bab565b505050505050565b610be98161105b565b82525050565b6000610bfa82610eef565b610c048185610f8e565b9350610c148185602086016110ad565b80840191505092915050565b6000610c2d601883610f7d565b9150610c3882611264565b602082019050919050565b6000610c50601183610f7d565b9150610c5b8261128d565b602082019050919050565b610c6f81611087565b82525050565b610c86610c8182611087565b61117e565b82525050565b610c9581611091565b82525050565b6000610ca78287610c75565b602082019150610cb78286610c75565b602082019150610cc782856109bf565b601482019150610cd78284610bef565b915081905095945050505050565b6000602082019050610cfa60008301846109b0565b92915050565b600061020082019050610d166000830184610a2d565b92915050565b600061030082019050610d326000830187610b32565b610d3f60408301866109d6565b610d4c60c0830185610b32565b610d5a610100830184610a84565b95945050505050565b6000602082019050610d786000830184610be0565b92915050565b60006020820190508181036000830152610d9781610c20565b9050919050565b60006020820190508181036000830152610db781610c43565b9050919050565b6000610dc8610dd9565b9050610dd482826110e0565b919050565b6000604051905090565b600067ffffffffffffffff821115610dfe57610dfd611217565b5b602082029050919050565b600067ffffffffffffffff821115610e2457610e23611217565b5b602082029050919050565b600067ffffffffffffffff821115610e4a57610e49611217565b5b602082029050919050565b600067ffffffffffffffff821115610e7057610e6f611217565b5b610e7982611246565b9050602081019050919050565b6000819050919050565b6000819050919050565b6000819050919050565b6000819050919050565b6000819050919050565b600060029050919050565b600060049050919050565b600060109050919050565b600060029050919050565b600060049050919050565b600081519050919050565b6000602082019050919050565b6000602082019050919050565b6000602082019050919050565b6000602082019050919050565b6000602082019050919050565b600081905092915050565b600081905092915050565b600081905092915050565b600081905092915050565b600081905092915050565b600081905092915050565b600082825260208201905092915050565b600081905092915050565b6000610fa482611087565b9150610faf83611087565b9250827fffffffffffffffffffffffffffffffffffffffffffffffffffffffffffffffff03821115610fe457610fe36111b9565b5b828201905092915050565b6000610ffa82611087565b915061100583611087565b9250817fffffffffffffffffffffffffffffffffffffffffffffffffffffffffffffffff048311821515161561103e5761103d6111b9565b5b828202905092915050565b600061105482611067565b9050919050565b60008115159050919050565b600073ffffffffffffffffffffffffffffffffffffffff82169050919050565b6000819050919050565b600060ff82169050919050565b82818337600083830152505050565b60005b838110156110cb5780820151818401526020810190506110b0565b838111156110da576000848401525b50505050565b6110e982611246565b810181811067ffffffffffffffff8211171561110857611107611217565b5b80604052505050565b600061111c82611087565b91507fffffffffffffffffffffffffffffffffffffffffffffffffffffffffffffffff82141561114f5761114e6111b9565b5b600182019050919050565b60006111658261116c565b9050919050565b600061117782611257565b9050919050565b6000819050919050565b600061119382611087565b915061119e83611087565b9250826111ae576111ad6111e8565b5b828206905092915050565b7f4e487b7100000000000000000000000000000000000000000000000000000000600052601160045260246000fd5b7f4e487b7100000000000000000000000000000000000000000000000000000000600052601260045260246000fd5b7f4e487b7100000000000000000000000000000000000000000000000000000000600052604160045260246000fd5b6000601f19601f8301169050919050565b60008160601b9050919050565b7f5468697320626f61726420646f65736e6f742065786973740000000000000000600082015250565b7f46696c65642050726f6f6620436865636b000000000000000000000000000000600082015250565b6112bf8161105b565b81146112ca57600080fd5b50565b6112d681611087565b81146112e157600080fd5b5056fea26469706673582212208d018ed30712b8173d9cbcb30c6bb4766a09e13813c29f94a71ffa0d5e0bf26264736f6c63430008040033","opcodes":"PUSH1 0x80 PUSH1 0x40 MSTORE PUSH1 0x40 MLOAD DUP1 PUSH1 0x60 ADD PUSH1 0x40 MSTORE DUP1 PUSH1 0x40 MLOAD DUP1 PUSH1 0x80 ADD PUSH1 0x40 MSTORE DUP1 PUSH1 0x40 MLOAD DUP1 PUSH1 0x80 ADD PUSH1 0x40 MSTORE DUP1 PUSH1 0x1 PUSH1 0xFF AND DUP2 MSTORE PUSH1 0x20 ADD PUSH1 0x0 PUSH1 0xFF AND DUP2 MSTORE PUSH1 0x20 ADD PUSH1 0x3 PUSH1 0xFF AND DUP2 MSTORE PUSH1 0x20 ADD PUSH1 0x0 PUSH1 0xFF AND DUP2 MSTORE POP DUP2 MSTORE PUSH1 0x20 ADD PUSH1 0x40 MLOAD DUP1 PUSH1 0x80 ADD PUSH1 0x40 MSTORE DUP1 PUSH1 0x2 PUSH1 0xFF AND DUP2 MSTORE PUSH1 0x20 ADD PUSH1 0x0 PUSH1 0xFF AND DUP2 MSTORE PUSH1 0x20 ADD PUSH1 0x0 PUSH1 0xFF AND DUP2 MSTORE PUSH1 0x20 ADD PUSH1 0x0 PUSH1 0xFF AND DUP2 MSTORE POP DUP2 MSTORE PUSH1 0x20 ADD PUSH1 0x40 MLOAD DUP1 PUSH1 0x80 ADD PUSH1 0x40 MSTORE DUP1 PUSH1 0x0 PUSH1 0xFF AND DUP2 MSTORE PUSH1 0x20 ADD PUSH1 0x0 PUSH1 0xFF AND DUP2 MSTORE PUSH1 0x20 ADD PUSH1 0x0 PUSH1 0xFF AND DUP2 MSTORE PUSH1 0x20 ADD PUSH1 0x4 PUSH1 0xFF AND DUP2 MSTORE POP DUP2 MSTORE PUSH1 0x20 ADD PUSH1 0x40 MLOAD DUP1 PUSH1 0x80 ADD PUSH1 0x40 MSTORE DUP1 PUSH1 0x0 PUSH1 0xFF AND DUP2 MSTORE PUSH1 0x20 ADD PUSH1 0x1 PUSH1 0xFF AND DUP2 MSTORE PUSH1 0x20 ADD PUSH1 0x0 PUSH1 0xFF AND DUP2 MSTORE PUSH1 0x20 ADD PUSH1 0x0 PUSH1 0xFF AND DUP2 MSTORE POP DUP2 MSTORE POP DUP2 MSTORE PUSH1 0x20 ADD PUSH1 0x40 MLOAD DUP1 PUSH1 0x80 ADD PUSH1 0x40 MSTORE DUP1 PUSH1 0x40 MLOAD DUP1 PUSH1 0x80 ADD PUSH1 0x40 MSTORE DUP1 PUSH1 0x0 PUSH1 0xFF AND DUP2 MSTORE PUSH1 0x20 ADD PUSH1 0x0 PUSH1 0xFF AND DUP2 MSTORE PUSH1 0x20 ADD PUSH1 0x0 PUSH1 0xFF AND DUP2 MSTORE PUSH1 0x20 ADD PUSH1 0x3 PUSH1 0xFF AND DUP2 MSTORE POP DUP2 MSTORE PUSH1 0x20 ADD PUSH1 0x40 MLOAD DUP1 PUSH1 0x80 ADD PUSH1 0x40 MSTORE DUP1 PUSH1 0x0 PUSH1 0xFF AND DUP2 MSTORE PUSH1 0x20 ADD PUSH1 0x4 PUSH1 0xFF AND DUP2 MSTORE PUSH1 0x20 ADD PUSH1 0x0 PUSH1 0xFF AND DUP2 MSTORE PUSH1 0x20 ADD PUSH1 0x0 PUSH1 0xFF AND DUP2 MSTORE POP DUP2 MSTORE PUSH1 0x20 ADD PUSH1 0x40 MLOAD DUP1 PUSH1 0x80 ADD PUSH1 0x40 MSTORE DUP1 PUSH1 0x0 PUSH1 0xFF AND DUP2 MSTORE PUSH1 0x20 ADD PUSH1 0x0 PUSH1 0xFF AND DUP2 MSTORE PUSH1 0x20 ADD PUSH1 0x3 PUSH1 0xFF AND DUP2 MSTORE PUSH1 0x20 ADD PUSH1 0x2 PUSH1 0xFF AND DUP2 MSTORE POP DUP2 MSTORE PUSH1 0x20 ADD PUSH1 0x40 MLOAD DUP1 PUSH1 0x80 ADD PUSH1 0x40 MSTORE DUP1 PUSH1 0x0 PUSH1 0xFF AND DUP2 MSTORE PUSH1 0x20 ADD PUSH1 0x0 PUSH1 0xFF AND DUP2 MSTORE PUSH1 0x20 ADD PUSH1 0x0 PUSH1 0xFF AND DUP2 MSTORE PUSH1 0x20 ADD PUSH1 0x0 PUSH1 0xFF AND DUP2 MSTORE POP DUP2 MSTORE POP DUP2 MSTORE PUSH1 0x20 ADD PUSH1 0x40 MLOAD DUP1 PUSH1 0x80 ADD PUSH1 0x40 MSTORE DUP1 PUSH1 0x40 MLOAD DUP1 PUSH1 0x80 ADD PUSH1 0x40 MSTORE DUP1 PUSH1 0x0 PUSH1 0xFF AND DUP2 MSTORE PUSH1 0x20 ADD PUSH1 0x0 PUSH1 0xFF AND DUP2 MSTORE PUSH1 0x20 ADD PUSH1 0x0 PUSH1 0xFF AND DUP2 MSTORE PUSH1 0x20 ADD PUSH1 0x4 PUSH1 0xFF AND DUP2 MSTORE POP DUP2 MSTORE PUSH1 0x20 ADD PUSH1 0x40 MLOAD DUP1 PUSH1 0x80 ADD PUSH1 0x40 MSTORE DUP1 PUSH1 0x0 PUSH1 0xFF AND DUP2 MSTORE PUSH1 0x20 ADD PUSH1 0x0 PUSH1 0xFF AND DUP2 MSTORE PUSH1 0x20 ADD PUSH1 0x0 PUSH1 0xFF AND DUP2 MSTORE PUSH1 0x20 ADD PUSH1 0x0 PUSH1 0xFF AND DUP2 MSTORE POP DUP2 MSTORE PUSH1 0x20 ADD PUSH1 0x40 MLOAD DUP1 PUSH1 0x80 ADD PUSH1 0x40 MSTORE DUP1 PUSH1 0x2 PUSH1 0xFF AND DUP2 MSTORE PUSH1 0x20 ADD PUSH1 0x0 PUSH1 0xFF AND DUP2 MSTORE PUSH1 0x20 ADD PUSH1 0x0 PUSH1 0xFF AND DUP2 MSTORE PUSH1 0x20 ADD PUSH1 0x3 PUSH1 0xFF AND DUP2 MSTORE POP DUP2 MSTORE PUSH1 0x20 ADD PUSH1 0x40 MLOAD DUP1 PUSH1 0x80 ADD PUSH1 0x40 MSTORE DUP1 PUSH1 0x4 PUSH1 0xFF AND DUP2 MSTORE PUSH1 0x20 ADD PUSH1 0x0 PUSH1 0xFF AND DUP2 MSTORE PUSH1 0x20 ADD PUSH1 0x1 PUSH1 0xFF AND DUP2 MSTORE PUSH1 0x20 ADD PUSH1 0x2 PUSH1 0xFF AND DUP2 MSTORE POP DUP2 MSTORE POP DUP2 MSTORE POP PUSH1 0x1 SWAP1 PUSH1 0x3 PUSH3 0x2D1 SWAP3 SWAP2 SWAP1 PUSH3 0x34C JUMP JUMPDEST POP CALLVALUE DUP1 ISZERO PUSH3 0x2DF JUMPI PUSH1 0x0 DUP1 REVERT JUMPDEST POP PUSH1 0x40 MLOAD PUSH3 0x1918 CODESIZE SUB DUP1 PUSH3 0x1918 DUP4 CODECOPY DUP2 DUP2 ADD PUSH1 0x40 MSTORE DUP2 ADD SWAP1 PUSH3 0x305 SWAP2 SWAP1 PUSH3 0x574 JUMP JUMPDEST DUP1 PUSH1 0x0 DUP1 PUSH2 0x100 EXP DUP2 SLOAD DUP2 PUSH20 0xFFFFFFFFFFFFFFFFFFFFFFFFFFFFFFFFFFFFFFFF MUL NOT AND SWAP1 DUP4 PUSH20 0xFFFFFFFFFFFFFFFFFFFFFFFFFFFFFFFFFFFFFFFF AND MUL OR SWAP1 SSTORE POP POP PUSH3 0x5EE JUMP JUMPDEST DUP3 PUSH1 0x3 PUSH1 0x4 MUL DUP2 ADD SWAP3 DUP3 ISZERO PUSH3 0x391 JUMPI SWAP2 PUSH1 0x20 MUL DUP3 ADD JUMPDEST DUP3 DUP2 GT ISZERO PUSH3 0x390 JUMPI DUP3 MLOAD DUP3 SWAP1 PUSH1 0x4 PUSH3 0x37F SWAP3 SWAP2 SWAP1 PUSH3 0x3A4 JUMP JUMPDEST POP SWAP2 PUSH1 0x20 ADD SWAP2 SWAP1 PUSH1 0x4 ADD SWAP1 PUSH3 0x363 JUMP JUMPDEST JUMPDEST POP SWAP1 POP PUSH3 0x3A0 SWAP2 SWAP1 PUSH3 0x3F9 JUMP JUMPDEST POP SWAP1 JUMP JUMPDEST DUP3 PUSH1 0x4 DUP2 ADD SWAP3 DUP3 ISZERO PUSH3 0x3E6 JUMPI SWAP2 PUSH1 0x20 MUL DUP3 ADD JUMPDEST DUP3 DUP2 GT ISZERO PUSH3 0x3E5 JUMPI DUP3 MLOAD DUP3 SWAP1 PUSH1 0x4 PUSH3 0x3D4 SWAP3 SWAP2 SWAP1 PUSH3 0x421 JUMP JUMPDEST POP SWAP2 PUSH1 0x20 ADD SWAP2 SWAP1 PUSH1 0x1 ADD SWAP1 PUSH3 0x3B8 JUMP JUMPDEST JUMPDEST POP SWAP1 POP PUSH3 0x3F5 SWAP2 SWAP1 PUSH3 0x4C2 JUMP JUMPDEST POP SWAP1 JUMP JUMPDEST JUMPDEST DUP1 DUP3 GT ISZERO PUSH3 0x41D JUMPI PUSH1 0x0 DUP2 DUP2 PUSH3 0x413 SWAP2 SWAP1 PUSH3 0x4EA JUMP JUMPDEST POP PUSH1 0x4 ADD PUSH3 0x3FA JUMP JUMPDEST POP SWAP1 JUMP JUMPDEST DUP3 PUSH1 0x4 PUSH1 0x1F ADD PUSH1 0x20 SWAP1 DIV DUP2 ADD SWAP3 DUP3 ISZERO PUSH3 0x4AF JUMPI SWAP2 PUSH1 0x20 MUL DUP3 ADD PUSH1 0x0 JUMPDEST DUP4 DUP3 GT ISZERO PUSH3 0x47E JUMPI DUP4 MLOAD DUP4 DUP3 PUSH2 0x100 EXP DUP2 SLOAD DUP2 PUSH1 0xFF MUL NOT AND SWAP1 DUP4 PUSH1 0xFF AND MUL OR SWAP1 SSTORE POP SWAP3 PUSH1 0x20 ADD SWAP3 PUSH1 0x1 ADD PUSH1 0x20 DUP2 PUSH1 0x0 ADD DIV SWAP3 DUP4 ADD SWAP3 PUSH1 0x1 SUB MUL PUSH3 0x43E JUMP JUMPDEST DUP1 ISZERO PUSH3 0x4AD JUMPI DUP3 DUP2 PUSH2 0x100 EXP DUP2 SLOAD SWAP1 PUSH1 0xFF MUL NOT AND SWAP1 SSTORE PUSH1 0x1 ADD PUSH1 0x20 DUP2 PUSH1 0x0 ADD DIV SWAP3 DUP4 ADD SWAP3 PUSH1 0x1 SUB MUL PUSH3 0x47E JUMP JUMPDEST POP JUMPDEST POP SWAP1 POP PUSH3 0x4BE SWAP2 SWAP1 PUSH3 0x537 JUMP JUMPDEST POP SWAP1 JUMP JUMPDEST JUMPDEST DUP1 DUP3 GT ISZERO PUSH3 0x4E6 JUMPI PUSH1 0x0 DUP2 DUP2 PUSH3 0x4DC SWAP2 SWAP1 PUSH3 0x556 JUMP JUMPDEST POP PUSH1 0x1 ADD PUSH3 0x4C3 JUMP JUMPDEST POP SWAP1 JUMP JUMPDEST POP PUSH1 0x0 DUP2 DUP2 PUSH3 0x4FB SWAP2 SWAP1 PUSH3 0x556 JUMP JUMPDEST POP PUSH1 0x1 ADD PUSH1 0x0 DUP2 DUP2 PUSH3 0x50F SWAP2 SWAP1 PUSH3 0x556 JUMP JUMPDEST POP PUSH1 0x1 ADD PUSH1 0x0 DUP2 DUP2 PUSH3 0x523 SWAP2 SWAP1 PUSH3 0x556 JUMP JUMPDEST POP PUSH1 0x1 ADD PUSH1 0x0 PUSH3 0x535 SWAP2 SWAP1 PUSH3 0x556 JUMP JUMPDEST JUMP JUMPDEST JUMPDEST DUP1 DUP3 GT ISZERO PUSH3 0x552 JUMPI PUSH1 0x0 DUP2 PUSH1 0x0 SWAP1 SSTORE POP PUSH1 0x1 ADD PUSH3 0x538 JUMP JUMPDEST POP SWAP1 JUMP JUMPDEST POP PUSH1 0x0 SWAP1 SSTORE JUMP JUMPDEST PUSH1 0x0 DUP2 MLOAD SWAP1 POP PUSH3 0x56E DUP2 PUSH3 0x5D4 JUMP JUMPDEST SWAP3 SWAP2 POP POP JUMP JUMPDEST PUSH1 0x0 PUSH1 0x20 DUP3 DUP5 SUB SLT ISZERO PUSH3 0x587 JUMPI PUSH1 0x0 DUP1 REVERT JUMPDEST PUSH1 0x0 PUSH3 0x597 DUP5 DUP3 DUP6 ADD PUSH3 0x55D JUMP JUMPDEST SWAP2 POP POP SWAP3 SWAP2 POP POP JUMP JUMPDEST PUSH1 0x0 PUSH3 0x5AD DUP3 PUSH3 0x5B4 JUMP JUMPDEST SWAP1 POP SWAP2 SWAP1 POP JUMP JUMPDEST PUSH1 0x0 PUSH20 0xFFFFFFFFFFFFFFFFFFFFFFFFFFFFFFFFFFFFFFFF DUP3 AND SWAP1 POP SWAP2 SWAP1 POP JUMP JUMPDEST PUSH3 0x5DF DUP2 PUSH3 0x5A0 JUMP JUMPDEST DUP2 EQ PUSH3 0x5EB JUMPI PUSH1 0x0 DUP1 REVERT JUMPDEST POP JUMP JUMPDEST PUSH2 0x131A DUP1 PUSH3 0x5FE PUSH1 0x0 CODECOPY PUSH1 0x0 RETURN INVALID PUSH1 0x80 PUSH1 0x40 MSTORE CALLVALUE DUP1 ISZERO PUSH2 0x10 JUMPI PUSH1 0x0 DUP1 REVERT JUMPDEST POP PUSH1 0x4 CALLDATASIZE LT PUSH2 0x4C JUMPI PUSH1 0x0 CALLDATALOAD PUSH1 0xE0 SHR DUP1 PUSH4 0x663EA2E2 EQ PUSH2 0x51 JUMPI DUP1 PUSH4 0xAA160D96 EQ PUSH2 0x6F JUMPI DUP1 PUSH4 0xC54D8FD3 EQ PUSH2 0x9F JUMPI DUP1 PUSH4 0xC82FEBF5 EQ PUSH2 0xCF JUMPI JUMPDEST PUSH1 0x0 DUP1 REVERT JUMPDEST PUSH2 0x59 PUSH2 0xFF JUMP JUMPDEST PUSH1 0x40 MLOAD PUSH2 0x66 SWAP2 SWAP1 PUSH2 0xCE5 JUMP JUMPDEST PUSH1 0x40 MLOAD DUP1 SWAP2 SUB SWAP1 RETURN JUMPDEST PUSH2 0x89 PUSH1 0x4 DUP1 CALLDATASIZE SUB DUP2 ADD SWAP1 PUSH2 0x84 SWAP2 SWAP1 PUSH2 0x881 JUMP JUMPDEST PUSH2 0x123 JUMP JUMPDEST PUSH1 0x40 MLOAD PUSH2 0x96 SWAP2 SWAP1 PUSH2 0xD63 JUMP JUMPDEST PUSH1 0x40 MLOAD DUP1 SWAP2 SUB SWAP1 RETURN JUMPDEST PUSH2 0xB9 PUSH1 0x4 DUP1 CALLDATASIZE SUB DUP2 ADD SWAP1 PUSH2 0xB4 SWAP2 SWAP1 PUSH2 0x90F JUMP JUMPDEST PUSH2 0x1C4 JUMP JUMPDEST PUSH1 0x40 MLOAD PUSH2 0xC6 SWAP2 SWAP1 PUSH2 0xD00 JUMP JUMPDEST PUSH1 0x40 MLOAD DUP1 SWAP2 SUB SWAP1 RETURN JUMPDEST PUSH2 0xE9 PUSH1 0x4 DUP1 CALLDATASIZE SUB DUP2 ADD SWAP1 PUSH2 0xE4 SWAP2 SWAP1 PUSH2 0x881 JUMP JUMPDEST PUSH2 0x1DC JUMP JUMPDEST PUSH1 0x40 MLOAD PUSH2 0xF6 SWAP2 SWAP1 PUSH2 0xD63 JUMP JUMPDEST PUSH1 0x40 MLOAD DUP1 SWAP2 SUB SWAP1 RETURN JUMPDEST PUSH1 0x0 DUP1 SLOAD SWAP1 PUSH2 0x100 EXP SWAP1 DIV PUSH20 0xFFFFFFFFFFFFFFFFFFFFFFFFFFFFFFFFFFFFFFFF AND DUP2 JUMP JUMPDEST PUSH1 0x0 PUSH2 0x12E DUP3 PUSH2 0x298 JUMP JUMPDEST PUSH2 0x16D JUMPI PUSH1 0x40 MLOAD PUSH32 0x8C379A000000000000000000000000000000000000000000000000000000000 DUP2 MSTORE PUSH1 0x4 ADD PUSH2 0x164 SWAP1 PUSH2 0xD7E JUMP JUMPDEST PUSH1 0x40 MLOAD DUP1 SWAP2 SUB SWAP1 REVERT JUMPDEST PUSH2 0x179 DUP6 DUP6 DUP6 DUP6 PUSH2 0x1DC JUMP JUMPDEST PUSH2 0x1B8 JUMPI PUSH1 0x40 MLOAD PUSH32 0x8C379A000000000000000000000000000000000000000000000000000000000 DUP2 MSTORE PUSH1 0x4 ADD PUSH2 0x1AF SWAP1 PUSH2 0xD9E JUMP JUMPDEST PUSH1 0x40 MLOAD DUP1 SWAP2 SUB SWAP1 REVERT JUMPDEST PUSH1 0x1 SWAP1 POP SWAP5 SWAP4 POP POP POP POP JUMP JUMPDEST PUSH2 0x1CC PUSH2 0x602 JUMP JUMPDEST PUSH2 0x1D5 DUP3 PUSH2 0x4DD JUMP JUMPDEST SWAP1 POP SWAP2 SWAP1 POP JUMP JUMPDEST PUSH1 0x0 DUP1 PUSH1 0x0 SWAP1 SLOAD SWAP1 PUSH2 0x100 EXP SWAP1 DIV PUSH20 0xFFFFFFFFFFFFFFFFFFFFFFFFFFFFFFFFFFFFFFFF AND PUSH20 0xFFFFFFFFFFFFFFFFFFFFFFFFFFFFFFFFFFFFFFFF AND PUSH4 0xC82FEBF5 DUP7 DUP7 DUP7 DUP7 PUSH1 0x40 MLOAD DUP6 PUSH4 0xFFFFFFFF AND PUSH1 0xE0 SHL DUP2 MSTORE PUSH1 0x4 ADD PUSH2 0x23E SWAP5 SWAP4 SWAP3 SWAP2 SWAP1 PUSH2 0xD1C JUMP JUMPDEST PUSH1 0x20 PUSH1 0x40 MLOAD DUP1 DUP4 SUB DUP2 DUP7 DUP1 EXTCODESIZE ISZERO DUP1 ISZERO PUSH2 0x256 JUMPI PUSH1 0x0 DUP1 REVERT JUMPDEST POP GAS STATICCALL ISZERO DUP1 ISZERO PUSH2 0x26A JUMPI RETURNDATASIZE PUSH1 0x0 DUP1 RETURNDATACOPY RETURNDATASIZE PUSH1 0x0 REVERT JUMPDEST POP POP POP POP PUSH1 0x40 MLOAD RETURNDATASIZE PUSH1 0x1F NOT PUSH1 0x1F DUP3 ADD AND DUP3 ADD DUP1 PUSH1 0x40 MSTORE POP DUP2 ADD SWAP1 PUSH2 0x28E SWAP2 SWAP1 PUSH2 0x8E6 JUMP JUMPDEST SWAP1 POP SWAP5 SWAP4 POP POP POP POP JUMP JUMPDEST PUSH1 0x0 DUP1 PUSH1 0x1 SWAP1 POP PUSH1 0x0 PUSH1 0x3 DUP2 LT ISZERO PUSH2 0x4D5 JUMPI PUSH1 0x1 SWAP2 POP PUSH1 0x0 JUMPDEST PUSH1 0x1 DUP3 PUSH1 0x3 DUP2 LT PUSH2 0x2EB JUMPI PUSH32 0x4E487B7100000000000000000000000000000000000000000000000000000000 PUSH1 0x0 MSTORE PUSH1 0x32 PUSH1 0x4 MSTORE PUSH1 0x24 PUSH1 0x0 REVERT JUMPDEST POP POP PUSH1 0x4 DUP2 LT ISZERO PUSH2 0x4CA JUMPI PUSH1 0x0 JUMPDEST PUSH1 0x1 DUP4 PUSH1 0x3 DUP2 LT PUSH2 0x333 JUMPI PUSH32 0x4E487B7100000000000000000000000000000000000000000000000000000000 PUSH1 0x0 MSTORE PUSH1 0x32 PUSH1 0x4 MSTORE PUSH1 0x24 PUSH1 0x0 REVERT JUMPDEST PUSH1 0x4 MUL ADD DUP3 PUSH1 0x4 DUP2 LT PUSH2 0x36F JUMPI PUSH32 0x4E487B7100000000000000000000000000000000000000000000000000000000 PUSH1 0x0 MSTORE PUSH1 0x32 PUSH1 0x4 MSTORE PUSH1 0x24 PUSH1 0x0 REVERT JUMPDEST POP POP PUSH1 0x4 DUP2 LT ISZERO PUSH2 0x4B8 JUMPI PUSH1 0x1 DUP4 PUSH1 0x3 DUP2 LT PUSH2 0x3B4 JUMPI PUSH32 0x4E487B7100000000000000000000000000000000000000000000000000000000 PUSH1 0x0 MSTORE PUSH1 0x32 PUSH1 0x4 MSTORE PUSH1 0x24 PUSH1 0x0 REVERT JUMPDEST PUSH1 0x4 MUL ADD DUP3 PUSH1 0x4 DUP2 LT PUSH2 0x3F0 JUMPI PUSH32 0x4E487B7100000000000000000000000000000000000000000000000000000000 PUSH1 0x0 MSTORE PUSH1 0x32 PUSH1 0x4 MSTORE PUSH1 0x24 PUSH1 0x0 REVERT JUMPDEST ADD DUP2 PUSH1 0x4 DUP2 LT PUSH2 0x429 JUMPI PUSH32 0x4E487B7100000000000000000000000000000000000000000000000000000000 PUSH1 0x0 MSTORE PUSH1 0x32 PUSH1 0x4 MSTORE PUSH1 0x24 PUSH1 0x0 REVERT JUMPDEST PUSH1 0x20 SWAP2 DUP3 DUP3 DIV ADD SWAP2 SWAP1 MOD SWAP1 SLOAD SWAP1 PUSH2 0x100 EXP SWAP1 DIV PUSH1 0xFF AND PUSH1 0xFF AND DUP7 DUP3 DUP5 PUSH1 0x4 PUSH2 0x451 SWAP2 SWAP1 PUSH2 0xFEF JUMP JUMPDEST PUSH2 0x45B SWAP2 SWAP1 PUSH2 0xF99 JUMP JUMPDEST PUSH1 0x10 DUP2 LT PUSH2 0x492 JUMPI PUSH32 0x4E487B7100000000000000000000000000000000000000000000000000000000 PUSH1 0x0 MSTORE PUSH1 0x32 PUSH1 0x4 MSTORE PUSH1 0x24 PUSH1 0x0 REVERT JUMPDEST PUSH1 0x20 MUL ADD MLOAD EQ PUSH2 0x4A5 JUMPI PUSH1 0x0 SWAP4 POP PUSH2 0x4B8 JUMP JUMPDEST DUP1 DUP1 PUSH2 0x4B0 SWAP1 PUSH2 0x1111 JUMP JUMPDEST SWAP2 POP POP PUSH2 0x2F9 JUMP JUMPDEST POP DUP1 PUSH2 0x4C3 SWAP1 PUSH2 0x1111 JUMP JUMPDEST SWAP1 POP PUSH2 0x2B1 JUMP JUMPDEST POP DUP2 SWAP3 POP POP POP PUSH2 0x4D8 JUMP JUMPDEST POP POP JUMPDEST SWAP2 SWAP1 POP JUMP JUMPDEST PUSH2 0x4E5 PUSH2 0x602 JUMP JUMPDEST PUSH1 0x0 PUSH1 0x3 DIFFICULTY TIMESTAMP CALLER DUP7 PUSH1 0x40 MLOAD PUSH1 0x20 ADD PUSH2 0x500 SWAP5 SWAP4 SWAP3 SWAP2 SWAP1 PUSH2 0xC9B JUMP JUMPDEST PUSH1 0x40 MLOAD PUSH1 0x20 DUP2 DUP4 SUB SUB DUP2 MSTORE SWAP1 PUSH1 0x40 MSTORE DUP1 MLOAD SWAP1 PUSH1 0x20 ADD KECCAK256 PUSH1 0x0 SHR PUSH2 0x523 SWAP2 SWAP1 PUSH2 0x1188 JUMP JUMPDEST SWAP1 POP PUSH1 0x1 DUP2 PUSH1 0x3 DUP2 LT PUSH2 0x55F JUMPI PUSH32 0x4E487B7100000000000000000000000000000000000000000000000000000000 PUSH1 0x0 MSTORE PUSH1 0x32 PUSH1 0x4 MSTORE PUSH1 0x24 PUSH1 0x0 REVERT JUMPDEST PUSH1 0x4 MUL ADD PUSH1 0x4 DUP1 PUSH1 0x20 MUL PUSH1 0x40 MLOAD SWAP1 DUP2 ADD PUSH1 0x40 MSTORE DUP1 SWAP3 SWAP2 SWAP1 PUSH1 0x0 SWAP1 JUMPDEST DUP3 DUP3 LT ISZERO PUSH2 0x5F6 JUMPI DUP4 DUP3 ADD PUSH1 0x4 DUP1 PUSH1 0x20 MUL PUSH1 0x40 MLOAD SWAP1 DUP2 ADD PUSH1 0x40 MSTORE DUP1 SWAP3 SWAP2 SWAP1 DUP3 PUSH1 0x4 DUP1 ISZERO PUSH2 0x5E2 JUMPI PUSH1 0x20 MUL DUP3 ADD SWAP2 PUSH1 0x0 SWAP1 JUMPDEST DUP3 DUP3 SWAP1 SLOAD SWAP1 PUSH2 0x100 EXP SWAP1 DIV PUSH1 0xFF AND PUSH1 0xFF AND DUP2 MSTORE PUSH1 0x20 ADD SWAP1 PUSH1 0x1 ADD SWAP1 PUSH1 0x20 DUP3 PUSH1 0x0 ADD DIV SWAP3 DUP4 ADD SWAP3 PUSH1 0x1 SUB DUP3 MUL SWAP2 POP DUP1 DUP5 GT PUSH2 0x5AB JUMPI SWAP1 POP JUMPDEST POP POP POP POP POP DUP2 MSTORE PUSH1 0x20 ADD SWAP1 PUSH1 0x1 ADD SWAP1 PUSH2 0x57A JUMP JUMPDEST POP POP POP POP SWAP2 POP POP SWAP2 SWAP1 POP JUMP JUMPDEST PUSH1 0x40 MLOAD DUP1 PUSH1 0x80 ADD PUSH1 0x40 MSTORE DUP1 PUSH1 0x4 SWAP1 JUMPDEST PUSH2 0x619 PUSH2 0x62F JUMP JUMPDEST DUP2 MSTORE PUSH1 0x20 ADD SWAP1 PUSH1 0x1 SWAP1 SUB SWAP1 DUP2 PUSH2 0x611 JUMPI SWAP1 POP POP SWAP1 JUMP JUMPDEST PUSH1 0x40 MLOAD DUP1 PUSH1 0x80 ADD PUSH1 0x40 MSTORE DUP1 PUSH1 0x4 SWAP1 PUSH1 0x20 DUP3 MUL DUP1 CALLDATASIZE DUP4 CALLDATACOPY DUP1 DUP3 ADD SWAP2 POP POP SWAP1 POP POP SWAP1 JUMP JUMPDEST PUSH1 0x0 PUSH2 0x664 PUSH2 0x65F DUP5 PUSH2 0xDE3 JUMP JUMPDEST PUSH2 0xDBE JUMP JUMPDEST SWAP1 POP DUP1 DUP3 DUP6 PUSH1 0x40 DUP7 MUL DUP3 ADD GT ISZERO PUSH2 0x67A JUMPI PUSH1 0x0 DUP1 REVERT JUMPDEST PUSH1 0x0 JUMPDEST DUP6 DUP2 LT ISZERO PUSH2 0x6AA JUMPI DUP2 PUSH2 0x690 DUP9 DUP3 PUSH2 0x806 JUMP JUMPDEST DUP5 MSTORE PUSH1 0x20 DUP5 ADD SWAP4 POP PUSH1 0x40 DUP4 ADD SWAP3 POP POP PUSH1 0x1 DUP2 ADD SWAP1 POP PUSH2 0x67D JUMP JUMPDEST POP POP POP SWAP4 SWAP3 POP POP POP JUMP JUMPDEST PUSH1 0x0 PUSH2 0x6C7 PUSH2 0x6C2 DUP5 PUSH2 0xE09 JUMP JUMPDEST PUSH2 0xDBE JUMP JUMPDEST SWAP1 POP DUP1 DUP3 DUP6 PUSH1 0x20 DUP7 MUL DUP3 ADD GT ISZERO PUSH2 0x6DD JUMPI PUSH1 0x0 DUP1 REVERT JUMPDEST PUSH1 0x0 JUMPDEST DUP6 DUP2 LT ISZERO PUSH2 0x70D JUMPI DUP2 PUSH2 0x6F3 DUP9 DUP3 PUSH2 0x86C JUMP JUMPDEST DUP5 MSTORE PUSH1 0x20 DUP5 ADD SWAP4 POP PUSH1 0x20 DUP4 ADD SWAP3 POP POP PUSH1 0x1 DUP2 ADD SWAP1 POP PUSH2 0x6E0 JUMP JUMPDEST POP POP POP SWAP4 SWAP3 POP POP POP JUMP JUMPDEST PUSH1 0x0 PUSH2 0x72A PUSH2 0x725 DUP5 PUSH2 0xE2F JUMP JUMPDEST PUSH2 0xDBE JUMP JUMPDEST SWAP1 POP DUP1 DUP3 DUP6 PUSH1 0x20 DUP7 MUL DUP3 ADD GT ISZERO PUSH2 0x740 JUMPI PUSH1 0x0 DUP1 REVERT JUMPDEST PUSH1 0x0 JUMPDEST DUP6 DUP2 LT ISZERO PUSH2 0x770 JUMPI DUP2 PUSH2 0x756 DUP9 DUP3 PUSH2 0x86C JUMP JUMPDEST DUP5 MSTORE PUSH1 0x20 DUP5 ADD SWAP4 POP PUSH1 0x20 DUP4 ADD SWAP3 POP POP PUSH1 0x1 DUP2 ADD SWAP1 POP PUSH2 0x743 JUMP JUMPDEST POP POP POP SWAP4 SWAP3 POP POP POP JUMP JUMPDEST PUSH1 0x0 PUSH2 0x78D PUSH2 0x788 DUP5 PUSH2 0xE55 JUMP JUMPDEST PUSH2 0xDBE JUMP JUMPDEST SWAP1 POP DUP3 DUP2 MSTORE PUSH1 0x20 DUP2 ADD DUP5 DUP5 DUP5 ADD GT ISZERO PUSH2 0x7A5 JUMPI PUSH1 0x0 DUP1 REVERT JUMPDEST PUSH2 0x7B0 DUP5 DUP3 DUP6 PUSH2 0x109E JUMP JUMPDEST POP SWAP4 SWAP3 POP POP POP JUMP JUMPDEST PUSH1 0x0 DUP3 PUSH1 0x1F DUP4 ADD SLT PUSH2 0x7C9 JUMPI PUSH1 0x0 DUP1 REVERT JUMPDEST PUSH1 0x2 PUSH2 0x7D6 DUP5 DUP3 DUP6 PUSH2 0x651 JUMP JUMPDEST SWAP2 POP POP SWAP3 SWAP2 POP POP JUMP JUMPDEST PUSH1 0x0 DUP3 PUSH1 0x1F DUP4 ADD SLT PUSH2 0x7F0 JUMPI PUSH1 0x0 DUP1 REVERT JUMPDEST PUSH1 0x10 PUSH2 0x7FD DUP5 DUP3 DUP6 PUSH2 0x6B4 JUMP JUMPDEST SWAP2 POP POP SWAP3 SWAP2 POP POP JUMP JUMPDEST PUSH1 0x0 DUP3 PUSH1 0x1F DUP4 ADD SLT PUSH2 0x817 JUMPI PUSH1 0x0 DUP1 REVERT JUMPDEST PUSH1 0x2 PUSH2 0x824 DUP5 DUP3 DUP6 PUSH2 0x717 JUMP JUMPDEST SWAP2 POP POP SWAP3 SWAP2 POP POP JUMP JUMPDEST PUSH1 0x0 DUP2 MLOAD SWAP1 POP PUSH2 0x83C DUP2 PUSH2 0x12B6 JUMP JUMPDEST SWAP3 SWAP2 POP POP JUMP JUMPDEST PUSH1 0x0 DUP3 PUSH1 0x1F DUP4 ADD SLT PUSH2 0x853 JUMPI PUSH1 0x0 DUP1 REVERT JUMPDEST DUP2 CALLDATALOAD PUSH2 0x863 DUP5 DUP3 PUSH1 0x20 DUP7 ADD PUSH2 0x77A JUMP JUMPDEST SWAP2 POP POP SWAP3 SWAP2 POP POP JUMP JUMPDEST PUSH1 0x0 DUP2 CALLDATALOAD SWAP1 POP PUSH2 0x87B DUP2 PUSH2 0x12CD JUMP JUMPDEST SWAP3 SWAP2 POP POP JUMP JUMPDEST PUSH1 0x0 DUP1 PUSH1 0x0 DUP1 PUSH2 0x300 DUP6 DUP8 SUB SLT ISZERO PUSH2 0x898 JUMPI PUSH1 0x0 DUP1 REVERT JUMPDEST PUSH1 0x0 PUSH2 0x8A6 DUP8 DUP3 DUP9 ADD PUSH2 0x806 JUMP JUMPDEST SWAP5 POP POP PUSH1 0x40 PUSH2 0x8B7 DUP8 DUP3 DUP9 ADD PUSH2 0x7B8 JUMP JUMPDEST SWAP4 POP POP PUSH1 0xC0 PUSH2 0x8C8 DUP8 DUP3 DUP9 ADD PUSH2 0x806 JUMP JUMPDEST SWAP3 POP POP PUSH2 0x100 PUSH2 0x8DA DUP8 DUP3 DUP9 ADD PUSH2 0x7DF JUMP JUMPDEST SWAP2 POP POP SWAP3 SWAP6 SWAP2 SWAP5 POP SWAP3 POP JUMP JUMPDEST PUSH1 0x0 PUSH1 0x20 DUP3 DUP5 SUB SLT ISZERO PUSH2 0x8F8 JUMPI PUSH1 0x0 DUP1 REVERT JUMPDEST PUSH1 0x0 PUSH2 0x906 DUP5 DUP3 DUP6 ADD PUSH2 0x82D JUMP JUMPDEST SWAP2 POP POP SWAP3 SWAP2 POP POP JUMP JUMPDEST PUSH1 0x0 PUSH1 0x20 DUP3 DUP5 SUB SLT ISZERO PUSH2 0x921 JUMPI PUSH1 0x0 DUP1 REVERT JUMPDEST PUSH1 0x0 DUP3 ADD CALLDATALOAD PUSH8 0xFFFFFFFFFFFFFFFF DUP2 GT ISZERO PUSH2 0x93B JUMPI PUSH1 0x0 DUP1 REVERT JUMPDEST PUSH2 0x947 DUP5 DUP3 DUP6 ADD PUSH2 0x842 JUMP JUMPDEST SWAP2 POP POP SWAP3 SWAP2 POP POP JUMP JUMPDEST PUSH1 0x0 PUSH2 0x95C DUP4 DUP4 PUSH2 0xADB JUMP JUMPDEST PUSH1 0x40 DUP4 ADD SWAP1 POP SWAP3 SWAP2 POP POP JUMP JUMPDEST PUSH1 0x0 PUSH2 0x974 DUP4 DUP4 PUSH2 0xB89 JUMP JUMPDEST PUSH1 0x80 DUP4 ADD SWAP1 POP SWAP3 SWAP2 POP POP JUMP JUMPDEST PUSH1 0x0 PUSH2 0x98C DUP4 DUP4 PUSH2 0xC66 JUMP JUMPDEST PUSH1 0x20 DUP4 ADD SWAP1 POP SWAP3 SWAP2 POP POP JUMP JUMPDEST PUSH1 0x0 PUSH2 0x9A4 DUP4 DUP4 PUSH2 0xC8C JUMP JUMPDEST PUSH1 0x20 DUP4 ADD SWAP1 POP SWAP3 SWAP2 POP POP JUMP JUMPDEST PUSH2 0x9B9 DUP2 PUSH2 0x1049 JUMP JUMPDEST DUP3 MSTORE POP POP JUMP JUMPDEST PUSH2 0x9D0 PUSH2 0x9CB DUP3 PUSH2 0x1049 JUMP JUMPDEST PUSH2 0x115A JUMP JUMPDEST DUP3 MSTORE POP POP JUMP JUMPDEST PUSH2 0x9DF DUP2 PUSH2 0xEB8 JUMP JUMPDEST PUSH2 0x9E9 DUP2 DUP5 PUSH2 0xF3B JUMP JUMPDEST SWAP3 POP PUSH2 0x9F4 DUP3 PUSH2 0xE86 JUMP JUMPDEST DUP1 PUSH1 0x0 JUMPDEST DUP4 DUP2 LT ISZERO PUSH2 0xA25 JUMPI DUP2 MLOAD PUSH2 0xA0C DUP8 DUP3 PUSH2 0x950 JUMP JUMPDEST SWAP7 POP PUSH2 0xA17 DUP4 PUSH2 0xEFA JUMP JUMPDEST SWAP3 POP POP PUSH1 0x1 DUP2 ADD SWAP1 POP PUSH2 0x9F8 JUMP JUMPDEST POP POP POP POP POP POP JUMP JUMPDEST PUSH2 0xA36 DUP2 PUSH2 0xEC3 JUMP JUMPDEST PUSH2 0xA40 DUP2 DUP5 PUSH2 0xF46 JUMP JUMPDEST SWAP3 POP PUSH2 0xA4B DUP3 PUSH2 0xE90 JUMP JUMPDEST DUP1 PUSH1 0x0 JUMPDEST DUP4 DUP2 LT ISZERO PUSH2 0xA7C JUMPI DUP2 MLOAD PUSH2 0xA63 DUP8 DUP3 PUSH2 0x968 JUMP JUMPDEST SWAP7 POP PUSH2 0xA6E DUP4 PUSH2 0xF07 JUMP JUMPDEST SWAP3 POP POP PUSH1 0x1 DUP2 ADD SWAP1 POP PUSH2 0xA4F JUMP JUMPDEST POP POP POP POP POP POP JUMP JUMPDEST PUSH2 0xA8D DUP2 PUSH2 0xECE JUMP JUMPDEST PUSH2 0xA97 DUP2 DUP5 PUSH2 0xF51 JUMP JUMPDEST SWAP3 POP PUSH2 0xAA2 DUP3 PUSH2 0xE9A JUMP JUMPDEST DUP1 PUSH1 0x0 JUMPDEST DUP4 DUP2 LT ISZERO PUSH2 0xAD3 JUMPI DUP2 MLOAD PUSH2 0xABA DUP8 DUP3 PUSH2 0x980 JUMP JUMPDEST SWAP7 POP PUSH2 0xAC5 DUP4 PUSH2 0xF14 JUMP JUMPDEST SWAP3 POP POP PUSH1 0x1 DUP2 ADD SWAP1 POP PUSH2 0xAA6 JUMP JUMPDEST POP POP POP POP POP POP JUMP JUMPDEST PUSH2 0xAE4 DUP2 PUSH2 0xED9 JUMP JUMPDEST PUSH2 0xAEE DUP2 DUP5 PUSH2 0xF5C JUMP JUMPDEST SWAP3 POP PUSH2 0xAF9 DUP3 PUSH2 0xEA4 JUMP JUMPDEST DUP1 PUSH1 0x0 JUMPDEST DUP4 DUP2 LT ISZERO PUSH2 0xB2A JUMPI DUP2 MLOAD PUSH2 0xB11 DUP8 DUP3 PUSH2 0x980 JUMP JUMPDEST SWAP7 POP PUSH2 0xB1C DUP4 PUSH2 0xF21 JUMP JUMPDEST SWAP3 POP POP PUSH1 0x1 DUP2 ADD SWAP1 POP PUSH2 0xAFD JUMP JUMPDEST POP POP POP POP POP POP JUMP JUMPDEST PUSH2 0xB3B DUP2 PUSH2 0xED9 JUMP JUMPDEST PUSH2 0xB45 DUP2 DUP5 PUSH2 0xF67 JUMP JUMPDEST SWAP3 POP PUSH2 0xB50 DUP3 PUSH2 0xEA4 JUMP JUMPDEST DUP1 PUSH1 0x0 JUMPDEST DUP4 DUP2 LT ISZERO PUSH2 0xB81 JUMPI DUP2 MLOAD PUSH2 0xB68 DUP8 DUP3 PUSH2 0x980 JUMP JUMPDEST SWAP7 POP PUSH2 0xB73 DUP4 PUSH2 0xF21 JUMP JUMPDEST SWAP3 POP POP PUSH1 0x1 DUP2 ADD SWAP1 POP PUSH2 0xB54 JUMP JUMPDEST POP POP POP POP POP POP JUMP JUMPDEST PUSH2 0xB92 DUP2 PUSH2 0xEE4 JUMP JUMPDEST PUSH2 0xB9C DUP2 DUP5 PUSH2 0xF72 JUMP JUMPDEST SWAP3 POP PUSH2 0xBA7 DUP3 PUSH2 0xEAE JUMP JUMPDEST DUP1 PUSH1 0x0 JUMPDEST DUP4 DUP2 LT ISZERO PUSH2 0xBD8 JUMPI DUP2 MLOAD PUSH2 0xBBF DUP8 DUP3 PUSH2 0x998 JUMP JUMPDEST SWAP7 POP PUSH2 0xBCA DUP4 PUSH2 0xF2E JUMP JUMPDEST SWAP3 POP POP PUSH1 0x1 DUP2 ADD SWAP1 POP PUSH2 0xBAB JUMP JUMPDEST POP POP POP POP POP POP JUMP JUMPDEST PUSH2 0xBE9 DUP2 PUSH2 0x105B JUMP JUMPDEST DUP3 MSTORE POP POP JUMP JUMPDEST PUSH1 0x0 PUSH2 0xBFA DUP3 PUSH2 0xEEF JUMP JUMPDEST PUSH2 0xC04 DUP2 DUP6 PUSH2 0xF8E JUMP JUMPDEST SWAP4 POP PUSH2 0xC14 DUP2 DUP6 PUSH1 0x20 DUP7 ADD PUSH2 0x10AD JUMP JUMPDEST DUP1 DUP5 ADD SWAP2 POP POP SWAP3 SWAP2 POP POP JUMP JUMPDEST PUSH1 0x0 PUSH2 0xC2D PUSH1 0x18 DUP4 PUSH2 0xF7D JUMP JUMPDEST SWAP2 POP PUSH2 0xC38 DUP3 PUSH2 0x1264 JUMP JUMPDEST PUSH1 0x20 DUP3 ADD SWAP1 POP SWAP2 SWAP1 POP JUMP JUMPDEST PUSH1 0x0 PUSH2 0xC50 PUSH1 0x11 DUP4 PUSH2 0xF7D JUMP JUMPDEST SWAP2 POP PUSH2 0xC5B DUP3 PUSH2 0x128D JUMP JUMPDEST PUSH1 0x20 DUP3 ADD SWAP1 POP SWAP2 SWAP1 POP JUMP JUMPDEST PUSH2 0xC6F DUP2 PUSH2 0x1087 JUMP JUMPDEST DUP3 MSTORE POP POP JUMP JUMPDEST PUSH2 0xC86 PUSH2 0xC81 DUP3 PUSH2 0x1087 JUMP JUMPDEST PUSH2 0x117E JUMP JUMPDEST DUP3 MSTORE POP POP JUMP JUMPDEST PUSH2 0xC95 DUP2 PUSH2 0x1091 JUMP JUMPDEST DUP3 MSTORE POP POP JUMP JUMPDEST PUSH1 0x0 PUSH2 0xCA7 DUP3 DUP8 PUSH2 0xC75 JUMP JUMPDEST PUSH1 0x20 DUP3 ADD SWAP2 POP PUSH2 0xCB7 DUP3 DUP7 PUSH2 0xC75 JUMP JUMPDEST PUSH1 0x20 DUP3 ADD SWAP2 POP PUSH2 0xCC7 DUP3 DUP6 PUSH2 0x9BF JUMP JUMPDEST PUSH1 0x14 DUP3 ADD SWAP2 POP PUSH2 0xCD7 DUP3 DUP5 PUSH2 0xBEF JUMP JUMPDEST SWAP2 POP DUP2 SWAP1 POP SWAP6 SWAP5 POP POP POP POP POP JUMP JUMPDEST PUSH1 0x0 PUSH1 0x20 DUP3 ADD SWAP1 POP PUSH2 0xCFA PUSH1 0x0 DUP4 ADD DUP5 PUSH2 0x9B0 JUMP JUMPDEST SWAP3 SWAP2 POP POP JUMP JUMPDEST PUSH1 0x0 PUSH2 0x200 DUP3 ADD SWAP1 POP PUSH2 0xD16 PUSH1 0x0 DUP4 ADD DUP5 PUSH2 0xA2D JUMP JUMPDEST SWAP3 SWAP2 POP POP JUMP JUMPDEST PUSH1 0x0 PUSH2 0x300 DUP3 ADD SWAP1 POP PUSH2 0xD32 PUSH1 0x0 DUP4 ADD DUP8 PUSH2 0xB32 JUMP JUMPDEST PUSH2 0xD3F PUSH1 0x40 DUP4 ADD DUP7 PUSH2 0x9D6 JUMP JUMPDEST PUSH2 0xD4C PUSH1 0xC0 DUP4 ADD DUP6 PUSH2 0xB32 JUMP JUMPDEST PUSH2 0xD5A PUSH2 0x100 DUP4 ADD DUP5 PUSH2 0xA84 JUMP JUMPDEST SWAP6 SWAP5 POP POP POP POP POP JUMP JUMPDEST PUSH1 0x0 PUSH1 0x20 DUP3 ADD SWAP1 POP PUSH2 0xD78 PUSH1 0x0 DUP4 ADD DUP5 PUSH2 0xBE0 JUMP JUMPDEST SWAP3 SWAP2 POP POP JUMP JUMPDEST PUSH1 0x0 PUSH1 0x20 DUP3 ADD SWAP1 POP DUP2 DUP2 SUB PUSH1 0x0 DUP4 ADD MSTORE PUSH2 0xD97 DUP2 PUSH2 0xC20 JUMP JUMPDEST SWAP1 POP SWAP2 SWAP1 POP JUMP JUMPDEST PUSH1 0x0 PUSH1 0x20 DUP3 ADD SWAP1 POP DUP2 DUP2 SUB PUSH1 0x0 DUP4 ADD MSTORE PUSH2 0xDB7 DUP2 PUSH2 0xC43 JUMP JUMPDEST SWAP1 POP SWAP2 SWAP1 POP JUMP JUMPDEST PUSH1 0x0 PUSH2 0xDC8 PUSH2 0xDD9 JUMP JUMPDEST SWAP1 POP PUSH2 0xDD4 DUP3 DUP3 PUSH2 0x10E0 JUMP JUMPDEST SWAP2 SWAP1 POP JUMP JUMPDEST PUSH1 0x0 PUSH1 0x40 MLOAD SWAP1 POP SWAP1 JUMP JUMPDEST PUSH1 0x0 PUSH8 0xFFFFFFFFFFFFFFFF DUP3 GT ISZERO PUSH2 0xDFE JUMPI PUSH2 0xDFD PUSH2 0x1217 JUMP JUMPDEST JUMPDEST PUSH1 0x20 DUP3 MUL SWAP1 POP SWAP2 SWAP1 POP JUMP JUMPDEST PUSH1 0x0 PUSH8 0xFFFFFFFFFFFFFFFF DUP3 GT ISZERO PUSH2 0xE24 JUMPI PUSH2 0xE23 PUSH2 0x1217 JUMP JUMPDEST JUMPDEST PUSH1 0x20 DUP3 MUL SWAP1 POP SWAP2 SWAP1 POP JUMP JUMPDEST PUSH1 0x0 PUSH8 0xFFFFFFFFFFFFFFFF DUP3 GT ISZERO PUSH2 0xE4A JUMPI PUSH2 0xE49 PUSH2 0x1217 JUMP JUMPDEST JUMPDEST PUSH1 0x20 DUP3 MUL SWAP1 POP SWAP2 SWAP1 POP JUMP JUMPDEST PUSH1 0x0 PUSH8 0xFFFFFFFFFFFFFFFF DUP3 GT ISZERO PUSH2 0xE70 JUMPI PUSH2 0xE6F PUSH2 0x1217 JUMP JUMPDEST JUMPDEST PUSH2 0xE79 DUP3 PUSH2 0x1246 JUMP JUMPDEST SWAP1 POP PUSH1 0x20 DUP2 ADD SWAP1 POP SWAP2 SWAP1 POP JUMP JUMPDEST PUSH1 0x0 DUP2 SWAP1 POP SWAP2 SWAP1 POP JUMP JUMPDEST PUSH1 0x0 DUP2 SWAP1 POP SWAP2 SWAP1 POP JUMP JUMPDEST PUSH1 0x0 DUP2 SWAP1 POP SWAP2 SWAP1 POP JUMP JUMPDEST PUSH1 0x0 DUP2 SWAP1 POP SWAP2 SWAP1 POP JUMP JUMPDEST PUSH1 0x0 DUP2 SWAP1 POP SWAP2 SWAP1 POP JUMP JUMPDEST PUSH1 0x0 PUSH1 0x2 SWAP1 POP SWAP2 SWAP1 POP JUMP JUMPDEST PUSH1 0x0 PUSH1 0x4 SWAP1 POP SWAP2 SWAP1 POP JUMP JUMPDEST PUSH1 0x0 PUSH1 0x10 SWAP1 POP SWAP2 SWAP1 POP JUMP JUMPDEST PUSH1 0x0 PUSH1 0x2 SWAP1 POP SWAP2 SWAP1 POP JUMP JUMPDEST PUSH1 0x0 PUSH1 0x4 SWAP1 POP SWAP2 SWAP1 POP JUMP JUMPDEST PUSH1 0x0 DUP2 MLOAD SWAP1 POP SWAP2 SWAP1 POP JUMP JUMPDEST PUSH1 0x0 PUSH1 0x20 DUP3 ADD SWAP1 POP SWAP2 SWAP1 POP JUMP JUMPDEST PUSH1 0x0 PUSH1 0x20 DUP3 ADD SWAP1 POP SWAP2 SWAP1 POP JUMP JUMPDEST PUSH1 0x0 PUSH1 0x20 DUP3 ADD SWAP1 POP SWAP2 SWAP1 POP JUMP JUMPDEST PUSH1 0x0 PUSH1 0x20 DUP3 ADD SWAP1 POP SWAP2 SWAP1 POP JUMP JUMPDEST PUSH1 0x0 PUSH1 0x20 DUP3 ADD SWAP1 POP SWAP2 SWAP1 POP JUMP JUMPDEST PUSH1 0x0 DUP2 SWAP1 POP SWAP3 SWAP2 POP POP JUMP JUMPDEST PUSH1 0x0 DUP2 SWAP1 POP SWAP3 SWAP2 POP POP JUMP JUMPDEST PUSH1 0x0 DUP2 SWAP1 POP SWAP3 SWAP2 POP POP JUMP JUMPDEST PUSH1 0x0 DUP2 SWAP1 POP SWAP3 SWAP2 POP POP JUMP JUMPDEST PUSH1 0x0 DUP2 SWAP1 POP SWAP3 SWAP2 POP POP JUMP JUMPDEST PUSH1 0x0 DUP2 SWAP1 POP SWAP3 SWAP2 POP POP JUMP JUMPDEST PUSH1 0x0 DUP3 DUP3 MSTORE PUSH1 0x20 DUP3 ADD SWAP1 POP SWAP3 SWAP2 POP POP JUMP JUMPDEST PUSH1 0x0 DUP2 SWAP1 POP SWAP3 SWAP2 POP POP JUMP JUMPDEST PUSH1 0x0 PUSH2 0xFA4 DUP3 PUSH2 0x1087 JUMP JUMPDEST SWAP2 POP PUSH2 0xFAF DUP4 PUSH2 0x1087 JUMP JUMPDEST SWAP3 POP DUP3 PUSH32 0xFFFFFFFFFFFFFFFFFFFFFFFFFFFFFFFFFFFFFFFFFFFFFFFFFFFFFFFFFFFFFFFF SUB DUP3 GT ISZERO PUSH2 0xFE4 JUMPI PUSH2 0xFE3 PUSH2 0x11B9 JUMP JUMPDEST JUMPDEST DUP3 DUP3 ADD SWAP1 POP SWAP3 SWAP2 POP POP JUMP JUMPDEST PUSH1 0x0 PUSH2 0xFFA DUP3 PUSH2 0x1087 JUMP JUMPDEST SWAP2 POP PUSH2 0x1005 DUP4 PUSH2 0x1087 JUMP JUMPDEST SWAP3 POP DUP2 PUSH32 0xFFFFFFFFFFFFFFFFFFFFFFFFFFFFFFFFFFFFFFFFFFFFFFFFFFFFFFFFFFFFFFFF DIV DUP4 GT DUP3 ISZERO ISZERO AND ISZERO PUSH2 0x103E JUMPI PUSH2 0x103D PUSH2 0x11B9 JUMP JUMPDEST JUMPDEST DUP3 DUP3 MUL SWAP1 POP SWAP3 SWAP2 POP POP JUMP JUMPDEST PUSH1 0x0 PUSH2 0x1054 DUP3 PUSH2 0x1067 JUMP JUMPDEST SWAP1 POP SWAP2 SWAP1 POP JUMP JUMPDEST PUSH1 0x0 DUP2 ISZERO ISZERO SWAP1 POP SWAP2 SWAP1 POP JUMP JUMPDEST PUSH1 0x0 PUSH20 0xFFFFFFFFFFFFFFFFFFFFFFFFFFFFFFFFFFFFFFFF DUP3 AND SWAP1 POP SWAP2 SWAP1 POP JUMP JUMPDEST PUSH1 0x0 DUP2 SWAP1 POP SWAP2 SWAP1 POP JUMP JUMPDEST PUSH1 0x0 PUSH1 0xFF DUP3 AND SWAP1 POP SWAP2 SWAP1 POP JUMP JUMPDEST DUP3 DUP2 DUP4 CALLDATACOPY PUSH1 0x0 DUP4 DUP4 ADD MSTORE POP POP POP JUMP JUMPDEST PUSH1 0x0 JUMPDEST DUP4 DUP2 LT ISZERO PUSH2 0x10CB JUMPI DUP1 DUP3 ADD MLOAD DUP2 DUP5 ADD MSTORE PUSH1 0x20 DUP2 ADD SWAP1 POP PUSH2 0x10B0 JUMP JUMPDEST DUP4 DUP2 GT ISZERO PUSH2 0x10DA JUMPI PUSH1 0x0 DUP5 DUP5 ADD MSTORE JUMPDEST POP POP POP POP JUMP JUMPDEST PUSH2 0x10E9 DUP3 PUSH2 0x1246 JUMP JUMPDEST DUP2 ADD DUP2 DUP2 LT PUSH8 0xFFFFFFFFFFFFFFFF DUP3 GT OR ISZERO PUSH2 0x1108 JUMPI PUSH2 0x1107 PUSH2 0x1217 JUMP JUMPDEST JUMPDEST DUP1 PUSH1 0x40 MSTORE POP POP POP JUMP JUMPDEST PUSH1 0x0 PUSH2 0x111C DUP3 PUSH2 0x1087 JUMP JUMPDEST SWAP2 POP PUSH32 0xFFFFFFFFFFFFFFFFFFFFFFFFFFFFFFFFFFFFFFFFFFFFFFFFFFFFFFFFFFFFFFFF DUP3 EQ ISZERO PUSH2 0x114F JUMPI PUSH2 0x114E PUSH2 0x11B9 JUMP JUMPDEST JUMPDEST PUSH1 0x1 DUP3 ADD SWAP1 POP SWAP2 SWAP1 POP JUMP JUMPDEST PUSH1 0x0 PUSH2 0x1165 DUP3 PUSH2 0x116C JUMP JUMPDEST SWAP1 POP SWAP2 SWAP1 POP JUMP JUMPDEST PUSH1 0x0 PUSH2 0x1177 DUP3 PUSH2 0x1257 JUMP JUMPDEST SWAP1 POP SWAP2 SWAP1 POP JUMP JUMPDEST PUSH1 0x0 DUP2 SWAP1 POP SWAP2 SWAP1 POP JUMP JUMPDEST PUSH1 0x0 PUSH2 0x1193 DUP3 PUSH2 0x1087 JUMP JUMPDEST SWAP2 POP PUSH2 0x119E DUP4 PUSH2 0x1087 JUMP JUMPDEST SWAP3 POP DUP3 PUSH2 0x11AE JUMPI PUSH2 0x11AD PUSH2 0x11E8 JUMP JUMPDEST JUMPDEST DUP3 DUP3 MOD SWAP1 POP SWAP3 SWAP2 POP POP JUMP JUMPDEST PUSH32 0x4E487B7100000000000000000000000000000000000000000000000000000000 PUSH1 0x0 MSTORE PUSH1 0x11 PUSH1 0x4 MSTORE PUSH1 0x24 PUSH1 0x0 REVERT JUMPDEST PUSH32 0x4E487B7100000000000000000000000000000000000000000000000000000000 PUSH1 0x0 MSTORE PUSH1 0x12 PUSH1 0x4 MSTORE PUSH1 0x24 PUSH1 0x0 REVERT JUMPDEST PUSH32 0x4E487B7100000000000000000000000000000000000000000000000000000000 PUSH1 0x0 MSTORE PUSH1 0x41 PUSH1 0x4 MSTORE PUSH1 0x24 PUSH1 0x0 REVERT JUMPDEST PUSH1 0x0 PUSH1 0x1F NOT PUSH1 0x1F DUP4 ADD AND SWAP1 POP SWAP2 SWAP1 POP JUMP JUMPDEST PUSH1 0x0 DUP2 PUSH1 0x60 SHL SWAP1 POP SWAP2 SWAP1 POP JUMP JUMPDEST PUSH32 0x5468697320626F61726420646F65736E6F742065786973740000000000000000 PUSH1 0x0 DUP3 ADD MSTORE POP JUMP JUMPDEST PUSH32 0x46696C65642050726F6F6620436865636B000000000000000000000000000000 PUSH1 0x0 DUP3 ADD MSTORE POP JUMP JUMPDEST PUSH2 0x12BF DUP2 PUSH2 0x105B JUMP JUMPDEST DUP2 EQ PUSH2 0x12CA JUMPI PUSH1 0x0 DUP1 REVERT JUMPDEST POP JUMP JUMPDEST PUSH2 0x12D6 DUP2 PUSH2 0x1087 JUMP JUMPDEST DUP2 EQ PUSH2 0x12E1 JUMPI PUSH1 0x0 DUP1 REVERT JUMPDEST POP JUMP INVALID LOG2 PUSH5 0x6970667358 0x22 SLT KECCAK256 DUP14 ADD DUP15 0xD3 SMOD SLT 0xB8 OR RETURNDATASIZE SWAP13 0xBC 0xB3 0xC PUSH12 0xB4766A09E13813C29F94A71F STATICCALL 0xD 0x5E SIGNEXTEND CALLCODE PUSH3 0x64736F PUSH13 0x63430008040033000000000000 "},"methodIdentifiers":{"generateSudokuBoard(string)":"c54d8fd3","verifierAddr()":"663ea2e2","verifyProof(uint256[2],uint256[2][2],uint256[2],uint256[16])":"c82febf5","verifySudoku(uint256[2],uint256[2][2],uint256[2],uint256[16])":"aa160d96"}}}}}