{
  "_format": "hh-sol-artifact-1",
  "contractName": "Sudoku",
  "sourceName": "contracts/Sudoku.sol",
  "abi": [
    {
      "inputs": [
        {
          "internalType": "address",
          "name": "_verifierAddr",
          "type": "address"
        }
      ],
      "stateMutability": "nonpayable",
      "type": "constructor"
    },
    {
      "inputs": [
        {
          "internalType": "string",
          "name": "stringTime",
          "type": "string"
        }
      ],
      "name": "generateSudokuBoard",
      "outputs": [
        {
          "internalType": "uint8[4][4]",
          "name": "",
          "type": "uint8[4][4]"
        }
      ],
      "stateMutability": "view",
      "type": "function"
    },
    {
      "inputs": [],
      "name": "verifierAddr",
      "outputs": [
        {
          "internalType": "address",
          "name": "",
          "type": "address"
        }
      ],
      "stateMutability": "view",
      "type": "function"
    },
    {
      "inputs": [
        {
          "internalType": "uint256[2]",
          "name": "a",
          "type": "uint256[2]"
        },
        {
          "internalType": "uint256[2][2]",
          "name": "b",
          "type": "uint256[2][2]"
        },
        {
          "internalType": "uint256[2]",
          "name": "c",
          "type": "uint256[2]"
        },
        {
          "internalType": "uint256[16]",
          "name": "input",
          "type": "uint256[16]"
        }
      ],
      "name": "verifyProof",
      "outputs": [
        {
          "internalType": "bool",
          "name": "",
          "type": "bool"
        }
      ],
      "stateMutability": "view",
      "type": "function"
    },
    {
      "inputs": [
        {
          "internalType": "uint256[2]",
          "name": "a",
          "type": "uint256[2]"
        },
        {
          "internalType": "uint256[2][2]",
          "name": "b",
          "type": "uint256[2][2]"
        },
        {
          "internalType": "uint256[2]",
          "name": "c",
          "type": "uint256[2]"
        },
        {
          "internalType": "uint256[16]",
          "name": "input",
          "type": "uint256[16]"
        }
      ],
      "name": "verifySudoku",
      "outputs": [
        {
          "internalType": "bool",
          "name": "",
          "type": "bool"
        }
      ],
      "stateMutability": "view",
      "type": "function"
    }
  ],
  "bytecode": "0x6080604052604051806060016040528060405180608001604052806040518060800160405280600060ff168152602001600460ff168152602001600060ff168152602001600060ff1681525081526020016040518060800160405280600060ff168152602001600060ff168152602001600160ff168152602001600060ff1681525081526020016040518060800160405280600060ff168152602001600060ff168152602001600060ff168152602001600360ff1681525081526020016040518060800160405280600260ff168152602001600060ff168152602001600060ff168152602001600060ff16815250815250815260200160405180608001604052806040518060800160405280600060ff168152602001600460ff168152602001600060ff168152602001600060ff1681525081526020016040518060800160405280600060ff168152602001600060ff168152602001600160ff168152602001600060ff1681525081526020016040518060800160405280600060ff168152602001600060ff168152602001600060ff168152602001600360ff1681525081526020016040518060800160405280600260ff168152602001600060ff168152602001600060ff168152602001600060ff16815250815250815260200160405180608001604052806040518060800160405280600060ff168152602001600460ff168152602001600060ff168152602001600060ff1681525081526020016040518060800160405280600060ff168152602001600060ff168152602001600160ff168152602001600060ff1681525081526020016040518060800160405280600060ff168152602001600060ff168152602001600060ff168152602001600360ff1681525081526020016040518060800160405280600260ff168152602001600060ff168152602001600060ff168152602001600060ff168152508152508152506001906003620002d19291906200034c565b50348015620002df57600080fd5b506040516200191838038062001918833981810160405281019062000305919062000574565b806000806101000a81548173ffffffffffffffffffffffffffffffffffffffff021916908373ffffffffffffffffffffffffffffffffffffffff16021790555050620005ee565b826003600402810192821562000391579160200282015b8281111562000390578251829060046200037f929190620003a4565b509160200191906004019062000363565b5b509050620003a09190620003f9565b5090565b8260048101928215620003e6579160200282015b82811115620003e557825182906004620003d492919062000421565b5091602001919060010190620003b8565b5b509050620003f59190620004c2565b5090565b5b808211156200041d5760008181620004139190620004ea565b50600401620003fa565b5090565b826004601f01602090048101928215620004af5791602002820160005b838211156200047e57835183826101000a81548160ff021916908360ff16021790555092602001926001016020816000010492830192600103026200043e565b8015620004ad5782816101000a81549060ff02191690556001016020816000010492830192600103026200047e565b505b509050620004be919062000537565b5090565b5b80821115620004e65760008181620004dc919062000556565b50600101620004c3565b5090565b5060008181620004fb919062000556565b50600101600081816200050f919062000556565b506001016000818162000523919062000556565b50600101600062000535919062000556565b565b5b808211156200055257600081600090555060010162000538565b5090565b5060009055565b6000815190506200056e81620005d4565b92915050565b6000602082840312156200058757600080fd5b600062000597848285016200055d565b91505092915050565b6000620005ad82620005b4565b9050919050565b600073ffffffffffffffffffffffffffffffffffffffff82169050919050565b620005df81620005a0565b8114620005eb57600080fd5b50565b61131a80620005fe6000396000f3fe608060405234801561001057600080fd5b506004361061004c5760003560e01c8063663ea2e214610051578063aa160d961461006f578063c54d8fd31461009f578063c82febf5146100cf575b600080fd5b6100596100ff565b6040516100669190610ce5565b60405180910390f35b61008960048036038101906100849190610881565b610123565b6040516100969190610d63565b60405180910390f35b6100b960048036038101906100b4919061090f565b6101c4565b6040516100c69190610d00565b60405180910390f35b6100e960048036038101906100e49190610881565b6101dc565b6040516100f69190610d63565b60405180910390f35b60008054906101000a900473ffffffffffffffffffffffffffffffffffffffff1681565b600061012e82610298565b61016d576040517f08c379a000000000000000000000000000000000000000000000000000000000815260040161016490610d7e565b60405180910390fd5b610179858585856101dc565b6101b8576040517f08c379a00000000000000000000000000000000000000000000000000000000081526004016101af90610d9e565b60405180910390fd5b60019050949350505050565b6101cc610602565b6101d5826104dd565b9050919050565b60008060009054906101000a900473ffffffffffffffffffffffffffffffffffffffff1673ffffffffffffffffffffffffffffffffffffffff1663c82febf5868686866040518563ffffffff1660e01b815260040161023e9493929190610d1c565b60206040518083038186803b15801561025657600080fd5b505afa15801561026a573d6000803e3d6000fd5b505050506040513d601f19601f8201168201806040525081019061028e91906108e6565b9050949350505050565b60008060019050600060038110156104d5576001915060005b600182600381106102eb577f4e487b7100000000000000000000000000000000000000000000000000000000600052603260045260246000fd5b505060048110156104ca5760005b60018360038110610333577f4e487b7100000000000000000000000000000000000000000000000000000000600052603260045260246000fd5b60040201826004811061036f577f4e487b7100000000000000000000000000000000000000000000000000000000600052603260045260246000fd5b505060048110156104b857600183600381106103b4577f4e487b7100000000000000000000000000000000000000000000000000000000600052603260045260246000fd5b6004020182600481106103f0577f4e487b7100000000000000000000000000000000000000000000000000000000600052603260045260246000fd5b018160048110610429577f4e487b7100000000000000000000000000000000000000000000000000000000600052603260045260246000fd5b602091828204019190069054906101000a900460ff1660ff1686828460046104519190610fef565b61045b9190610f99565b60108110610492577f4e487b7100000000000000000000000000000000000000000000000000000000600052603260045260246000fd5b6020020151146104a557600093506104b8565b80806104b090611111565b9150506102f9565b50806104c390611111565b90506102b1565b5081925050506104d8565b50505b919050565b6104e5610602565b60006003444233866040516020016105009493929190610c9b565b6040516020818303038152906040528051906020012060001c6105239190611188565b90506001816003811061055f577f4e487b7100000000000000000000000000000000000000000000000000000000600052603260045260246000fd5b60040201600480602002604051908101604052809291906000905b828210156105f6578382016004806020026040519081016040528092919082600480156105e2576020028201916000905b82829054906101000a900460ff1660ff16815260200190600101906020826000010492830192600103820291508084116105ab5790505b50505050508152602001906001019061057a565b50505050915050919050565b60405180608001604052806004905b61061961062f565b8152602001906001900390816106115790505090565b6040518060800160405280600490602082028036833780820191505090505090565b600061066461065f84610de3565b610dbe565b9050808285604086028201111561067a57600080fd5b60005b858110156106aa57816106908882610806565b84526020840193506040830192505060018101905061067d565b5050509392505050565b60006106c76106c284610e09565b610dbe565b905080828560208602820111156106dd57600080fd5b60005b8581101561070d57816106f3888261086c565b8452602084019350602083019250506001810190506106e0565b5050509392505050565b600061072a61072584610e2f565b610dbe565b9050808285602086028201111561074057600080fd5b60005b858110156107705781610756888261086c565b845260208401935060208301925050600181019050610743565b5050509392505050565b600061078d61078884610e55565b610dbe565b9050828152602081018484840111156107a557600080fd5b6107b084828561109e565b509392505050565b600082601f8301126107c957600080fd5b60026107d6848285610651565b91505092915050565b600082601f8301126107f057600080fd5b60106107fd8482856106b4565b91505092915050565b600082601f83011261081757600080fd5b6002610824848285610717565b91505092915050565b60008151905061083c816112b6565b92915050565b600082601f83011261085357600080fd5b813561086384826020860161077a565b91505092915050565b60008135905061087b816112cd565b92915050565b600080600080610300858703121561089857600080fd5b60006108a687828801610806565b94505060406108b7878288016107b8565b93505060c06108c887828801610806565b9250506101006108da878288016107df565b91505092959194509250565b6000602082840312156108f857600080fd5b60006109068482850161082d565b91505092915050565b60006020828403121561092157600080fd5b600082013567ffffffffffffffff81111561093b57600080fd5b61094784828501610842565b91505092915050565b600061095c8383610adb565b60408301905092915050565b60006109748383610b89565b60808301905092915050565b600061098c8383610c66565b60208301905092915050565b60006109a48383610c8c565b60208301905092915050565b6109b981611049565b82525050565b6109d06109cb82611049565b61115a565b82525050565b6109df81610eb8565b6109e98184610f3b565b92506109f482610e86565b8060005b83811015610a25578151610a0c8782610950565b9650610a1783610efa565b9250506001810190506109f8565b505050505050565b610a3681610ec3565b610a408184610f46565b9250610a4b82610e90565b8060005b83811015610a7c578151610a638782610968565b9650610a6e83610f07565b925050600181019050610a4f565b505050505050565b610a8d81610ece565b610a978184610f51565b9250610aa282610e9a565b8060005b83811015610ad3578151610aba8782610980565b9650610ac583610f14565b925050600181019050610aa6565b505050505050565b610ae481610ed9565b610aee8184610f5c565b9250610af982610ea4565b8060005b83811015610b2a578151610b118782610980565b9650610b1c83610f21565b925050600181019050610afd565b505050505050565b610b3b81610ed9565b610b458184610f67565b9250610b5082610ea4565b8060005b83811015610b81578151610b688782610980565b9650610b7383610f21565b925050600181019050610b54565b505050505050565b610b9281610ee4565b610b9c8184610f72565b9250610ba782610eae565b8060005b83811015610bd8578151610bbf8782610998565b9650610bca83610f2e565b925050600181019050610bab565b505050505050565b610be98161105b565b82525050565b6000610bfa82610eef565b610c048185610f8e565b9350610c148185602086016110ad565b80840191505092915050565b6000610c2d601883610f7d565b9150610c3882611264565b602082019050919050565b6000610c50601183610f7d565b9150610c5b8261128d565b602082019050919050565b610c6f81611087565b82525050565b610c86610c8182611087565b61117e565b82525050565b610c9581611091565b82525050565b6000610ca78287610c75565b602082019150610cb78286610c75565b602082019150610cc782856109bf565b601482019150610cd78284610bef565b915081905095945050505050565b6000602082019050610cfa60008301846109b0565b92915050565b600061020082019050610d166000830184610a2d565b92915050565b600061030082019050610d326000830187610b32565b610d3f60408301866109d6565b610d4c60c0830185610b32565b610d5a610100830184610a84565b95945050505050565b6000602082019050610d786000830184610be0565b92915050565b60006020820190508181036000830152610d9781610c20565b9050919050565b60006020820190508181036000830152610db781610c43565b9050919050565b6000610dc8610dd9565b9050610dd482826110e0565b919050565b6000604051905090565b600067ffffffffffffffff821115610dfe57610dfd611217565b5b602082029050919050565b600067ffffffffffffffff821115610e2457610e23611217565b5b602082029050919050565b600067ffffffffffffffff821115610e4a57610e49611217565b5b602082029050919050565b600067ffffffffffffffff821115610e7057610e6f611217565b5b610e7982611246565b9050602081019050919050565b6000819050919050565b6000819050919050565b6000819050919050565b6000819050919050565b6000819050919050565b600060029050919050565b600060049050919050565b600060109050919050565b600060029050919050565b600060049050919050565b600081519050919050565b6000602082019050919050565b6000602082019050919050565b6000602082019050919050565b6000602082019050919050565b6000602082019050919050565b600081905092915050565b600081905092915050565b600081905092915050565b600081905092915050565b600081905092915050565b600081905092915050565b600082825260208201905092915050565b600081905092915050565b6000610fa482611087565b9150610faf83611087565b9250827fffffffffffffffffffffffffffffffffffffffffffffffffffffffffffffffff03821115610fe457610fe36111b9565b5b828201905092915050565b6000610ffa82611087565b915061100583611087565b9250817fffffffffffffffffffffffffffffffffffffffffffffffffffffffffffffffff048311821515161561103e5761103d6111b9565b5b828202905092915050565b600061105482611067565b9050919050565b60008115159050919050565b600073ffffffffffffffffffffffffffffffffffffffff82169050919050565b6000819050919050565b600060ff82169050919050565b82818337600083830152505050565b60005b838110156110cb5780820151818401526020810190506110b0565b838111156110da576000848401525b50505050565b6110e982611246565b810181811067ffffffffffffffff8211171561110857611107611217565b5b80604052505050565b600061111c82611087565b91507fffffffffffffffffffffffffffffffffffffffffffffffffffffffffffffffff82141561114f5761114e6111b9565b5b600182019050919050565b60006111658261116c565b9050919050565b600061117782611257565b9050919050565b6000819050919050565b600061119382611087565b915061119e83611087565b9250826111ae576111ad6111e8565b5b828206905092915050565b7f4e487b7100000000000000000000000000000000000000000000000000000000600052601160045260246000fd5b7f4e487b7100000000000000000000000000000000000000000000000000000000600052601260045260246000fd5b7f4e487b7100000000000000000000000000000000000000000000000000000000600052604160045260246000fd5b6000601f19601f8301169050919050565b60008160601b9050919050565b7f5468697320626f61726420646f65736e6f742065786973740000000000000000600082015250565b7f46696c65642050726f6f6620436865636b000000000000000000000000000000600082015250565b6112bf8161105b565b81146112ca57600080fd5b50565b6112d681611087565b81146112e157600080fd5b5056fea264697066735822122091d427e4a626f12d1e86e0490c31deaa520a8c1eae5b58574e679276a4777fab64736f6c63430008040033",
  "linkReferences": {},
  "deployedLinkReferences": {}
}